:020000020000FC
:1000000019C018951895189518951895189569C0E0
:100010001895189518951895189518951895189578
:100020001895189518951895189518951895189568
:1000300018951895F894EE240FEF0DBF04E00EBF4D
:1000400002E00093640000E80093610000E0009388
:10005000610000E007B90EE208B90000002700E1E6
:1000600000937E0004E600937C000AE800937A0087
:100070000FEF0AB90FE304B90027002704BD00936E
:100080006E0005E005BD02E00093B00007E00093BC
:10009000B10000E40093B60000620093B6000CE7E4
:1000A0000093B3000091B6000F71E1F752E322E331
:1000B00002E000937000789477278827992791E0D1
:1000C0006627309B46D17AD16ED1329B4DD0319B81
:1000D0001AD1339BFBD006B10E700E3091F7B5D01C
:1000E000F0CFFFB60F931F9310E6092F10D0902F7B
:1000F00048F410E6082F0BD0802F20F4072F14E2CD
:1001000006D0702F88941F910F91FFBE18953F93D2
:100110000395302F3F703A5011F4005F007F8894B0
:100120001F93101B1F9111F4002708943F9108950D
:100130002F933F93005049F4012F0A95302F3F70C1
:100140003F5079F4007F09600CC0202F302F32958A
:100150003F702F70215010F429E03A953295322BE0
:10016000032F3F912F9108955DD018E06ED0329902
:100170000895A89BFBCF56D01A95C1F7646065D04F
:10018000329BFCCF0F931F9314E25FD04BD0072F0D
:10019000339B2DD0319B3AD0702F57D0A89B05C0F0
:1001A000A89A4A9511F4309B1BC03299F0CF329B2C
:1001B000FECF3CD06B7F626010E634D0082F339BBB
:1001C00013D0319B20D0802F40D0A89B05C0A89A87
:1001D0004A9511F4309B04C03299F0CF329BFECF88
:1001E000697F1F910F91089599279093B2001AD0BB
:1001F000339BFDCF359903C08ADF889402C098DF16
:10020000889414D0089599279093B2000BD0319B15
:10021000FDCF359903C08CDF889402C078DF8894C5
:1002200005D00895A89AE6BC44E608951F9312E30A
:100230000CD01A95E9F71F910895A8EFB3E006B125
:10024000007211F0A2E0B4E008950F93F6DF0FEF13
:1002500091D090D0092F2CD02D9A8CD02D98092F89
:10026000029526D05F982C9A85D02C98082F20D004
:100270002B9A61FD26D07ED02B98082F029518D09E
:100280002A9A61FD1ED076D02A98072F11D0299A7C
:1002900062FD17D06FD02998072F029509D00F70F3
:1002A00029F0289A62FD0DD065D028980F91089505
:1002B0000F930F70FD01E00FFE1D04910BB90F911C
:1002C00008950091B20004FD5F9808950F910027F2
:1002D0002D980BB92D9A4ED02D980BB92C9A4AD047
:1002E0002C980BB92B9A46D02B980BB92A9A42D04E
:1002F0002A980BB9299A3ED029980BB9289A3AD056
:1003000028980F93089599DF052F6ED0D1DF2D9A8D
:1003100031D02D980295CCDF2C9A2CD02C98022F1E
:1003200063D0C6DF2B9A26D02B980295C1DF2A9A7C
:1003300021D02A9803E835990CE80BB9289A1AD0ED
:1003400028980FEA35990FE90BB9299A13D0299803
:10035000089507E003BF30990AC0329B05DF339B45
:1003600004C0319B02C08895F6CF6FDFF4CF06E062
:1003700003BF08951F933F934F93122F39E13A958E
:10038000F1F71A95D9F7122F125348F44FEF4BB9E2
:10039000119500C039E13A95F1F71A95D9F74F91C7
:1003A0003F911F91089500917A00007509F008951A
:1003B00000917A00006400937A00089500917A0019
:1003C000007509F008954F93409179004695469540
:1003D000542F4A5008F444274395423310F022E347
:1003E00001C0242F4F91089533270A5010F0305F39
:1003F000FCCF065F030F0895C0F9A4B0999282D88C
:0C0400008090C0F992B0A9A484E180A013
:00000001FF
